{
  "contractName": "Doubler",
  "abi": [
    {
      "constant": true,
      "inputs": [
        {
          "name": "",
          "type": "uint256"
        }
      ],
      "name": "users",
      "outputs": [
        {
          "name": "addr",
          "type": "address"
        },
        {
          "name": "amount",
          "type": "uint256"
        }
      ],
      "payable": false,
      "stateMutability": "view",
      "type": "function",
      "signature": "0x365b98b2"
    },
    {
      "constant": true,
      "inputs": [],
      "name": "totalPayout",
      "outputs": [
        {
          "name": "",
          "type": "uint256"
        }
      ],
      "payable": false,
      "stateMutability": "view",
      "type": "function",
      "signature": "0x454f7b8f"
    },
    {
      "constant": true,
      "inputs": [],
      "name": "currentlyPaying",
      "outputs": [
        {
          "name": "",
          "type": "uint256"
        }
      ],
      "payable": false,
      "stateMutability": "view",
      "type": "function",
      "signature": "0x4941b9e1"
    },
    {
      "constant": true,
      "inputs": [],
      "name": "totalWei",
      "outputs": [
        {
          "name": "",
          "type": "uint256"
        }
      ],
      "payable": false,
      "stateMutability": "view",
      "type": "function",
      "signature": "0x6d98e9fc"
    },
    {
      "constant": true,
      "inputs": [],
      "name": "owner",
      "outputs": [
        {
          "name": "",
          "type": "address"
        }
      ],
      "payable": false,
      "stateMutability": "view",
      "type": "function",
      "signature": "0x8da5cb5b"
    },
    {
      "constant": true,
      "inputs": [],
      "name": "totalUsers",
      "outputs": [
        {
          "name": "",
          "type": "uint256"
        }
      ],
      "payable": false,
      "stateMutability": "view",
      "type": "function",
      "signature": "0xbff1f9e1"
    },
    {
      "inputs": [],
      "payable": false,
      "stateMutability": "nonpayable",
      "type": "constructor",
      "signature": "constructor"
    },
    {
      "constant": false,
      "inputs": [],
      "name": "join",
      "outputs": [],
      "payable": true,
      "stateMutability": "payable",
      "type": "function",
      "signature": "0xb688a363"
    }
  ],
  "bytecode": "0x6080604052600060025560006003556000600455600060055534801561002457600080fd5b50336000806101000a81548173ffffffffffffffffffffffffffffffffffffffff021916908373ffffffffffffffffffffffffffffffffffffffff16021790555061073d806100746000396000f3fe608060405260043610610083576000357c0100000000000000000000000000000000000000000000000000000000900463ffffffff168063365b98b214610088578063454f7b8f1461010a5780634941b9e1146101355780636d98e9fc146101605780638da5cb5b1461018b578063b688a363146101e2578063bff1f9e1146101ec575b600080fd5b34801561009457600080fd5b506100c1600480360360208110156100ab57600080fd5b8101908080359060200190929190505050610217565b604051808373ffffffffffffffffffffffffffffffffffffffff1673ffffffffffffffffffffffffffffffffffffffff1681526020018281526020019250505060405180910390f35b34801561011657600080fd5b5061011f61026a565b6040518082815260200191505060405180910390f35b34801561014157600080fd5b5061014a610270565b6040518082815260200191505060405180910390f35b34801561016c57600080fd5b50610175610276565b6040518082815260200191505060405180910390f35b34801561019757600080fd5b506101a061027c565b604051808273ffffffffffffffffffffffffffffffffffffffff1673ffffffffffffffffffffffffffffffffffffffff16815260200191505060405180910390f35b6101ea6102a1565b005b3480156101f857600080fd5b5061020161052a565b6040518082815260200191505060405180910390f35b60018181548110151561022657fe5b90600052602060002090600202016000915090508060000160009054906101000a900473ffffffffffffffffffffffffffffffffffffffff16908060010154905082565b60055481565b60025481565b60045481565b6000809054906101000a900473ffffffffffffffffffffffffffffffffffffffff1681565b600160408051908101604052803373ffffffffffffffffffffffffffffffffffffffff168152602001348152509080600181540180825580915050906001820390600052602060002090600202016000909192909190915060008201518160000160006101000a81548173ffffffffffffffffffffffffffffffffffffffff021916908373ffffffffffffffffffffffffffffffffffffffff160217905550602082015181600101555050506001600360008282540192505081905550346004600082825401925050819055506000809054906101000a900473ffffffffffffffffffffffffffffffffffffffff1673ffffffffffffffffffffffffffffffffffffffff166108fc6103bd600a3461053090919063ffffffff16565b9081150290604051600060405180830381858888f193505050501580156103e8573d6000803e3d6000fd5b505b6104206002600160025481548110151561040057fe5b90600052602060002090600202016001015461057a90919063ffffffff16565b3073ffffffffffffffffffffffffffffffffffffffff163111156105285760006104766002600160025481548110151561045657fe5b90600052602060002090600202016001015461057a90919063ffffffff16565b9050600160025481548110151561048957fe5b906000526020600020906002020160000160009054906101000a900473ffffffffffffffffffffffffffffffffffffffff1673ffffffffffffffffffffffffffffffffffffffff166108fc829081150290604051600060405180830381858888f19350505050158015610500573d6000803e3d6000fd5b50806005600082825401925050819055506001600260008282540192505081905550506103ea565b565b60035481565b600061057283836040805190810160405280601a81526020017f536166654d6174683a206469766973696f6e206279207a65726f000000000000815250610647565b905092915050565b60008083141561058d5760009050610641565b600082840290508284828115156105a057fe5b0414151561063c576040517f08c379a00000000000000000000000000000000000000000000000000000000081526004018080602001828103825260218152602001807f536166654d6174683a206d756c7469706c69636174696f6e206f766572666c6f81526020017f770000000000000000000000000000000000000000000000000000000000000081525060400191505060405180910390fd5b809150505b92915050565b6000808311829015156106f5576040517f08c379a00000000000000000000000000000000000000000000000000000000081526004018080602001828103825283818151815260200191508051906020019080838360005b838110156106ba57808201518184015260208101905061069f565b50505050905090810190601f1680156106e75780820380516001836020036101000a031916815260200191505b509250505060405180910390fd5b506000838581151561070357fe5b04905080915050939250505056fea165627a7a72305820aded4b7b11e860f040bb48b815d1399c46863c215163484aef2318d40a11cf080029",
  "source": "pragma solidity ^0.5.0;\n\nimport \"@openzeppelin/contracts/math/SafeMath.sol\";\n\n// Chain shaped ponzi\ncontract Doubler {\n\n\tusing SafeMath for uint;\n\n\taddress payable public owner;\n\n\tstruct User {\n\t\taddress payable addr;\n\t\tuint amount;\n\t}\n\n\tUser[] public users;\n\tuint public currentlyPaying = 0;\n\tuint public totalUsers = 0;\n\tuint public totalWei = 0;\n\tuint public totalPayout = 0;\n\n\tconstructor() public {\n\t\towner = msg.sender;\n\t}\n\n\tfunction join() external payable{\n\t\tusers.push(User(msg.sender, msg.value));\n\t\ttotalUsers += 1;\n\t\ttotalWei += msg.value;\n\n\t\towner.transfer(msg.value.div(10));\n\t\twhile (address(this).balance > users[currentlyPaying].amount.mul(2)) {\n\t\t\tuint sendAmount = users[currentlyPaying].amount.mul(2);\n\t\t\tusers[currentlyPaying].addr.transfer(sendAmount);\n\t\t\ttotalPayout += sendAmount;\n\t\t\tcurrentlyPaying += 1;\n\t\t}\n\t}\n}\n",
  "sourcePath": "/Users/alexroan/Documents/Projects/Blockchain/DApps/doubler/contracts/Doubler.sol",
  "compiler": {
    "name": "solc",
    "version": "0.5.0+commit.1d4f565a.Emscripten.clang"
  },
  "schemaVersion": "3.0.2",
  "updatedAt": "2020-02-24T13:47:05.888Z",
  "devdoc": {
    "methods": {}
  },
  "userdoc": {
    "methods": {}
  }
}