{
  "contractName": "Doubler",
  "abi": [
    {
      "constant": true,
      "inputs": [
        {
          "name": "",
          "type": "uint256"
        }
      ],
      "name": "users",
      "outputs": [
        {
          "name": "addr",
          "type": "address"
        },
        {
          "name": "amount",
          "type": "uint256"
        }
      ],
      "payable": false,
      "stateMutability": "view",
      "type": "function",
      "signature": "0x365b98b2"
    },
    {
      "constant": true,
      "inputs": [],
      "name": "currentlyPaying",
      "outputs": [
        {
          "name": "",
          "type": "uint256"
        }
      ],
      "payable": false,
      "stateMutability": "view",
      "type": "function",
      "signature": "0x4941b9e1"
    },
    {
      "constant": true,
      "inputs": [],
      "name": "owner",
      "outputs": [
        {
          "name": "",
          "type": "address"
        }
      ],
      "payable": false,
      "stateMutability": "view",
      "type": "function",
      "signature": "0x8da5cb5b"
    },
    {
      "constant": true,
      "inputs": [],
      "name": "totalUsers",
      "outputs": [
        {
          "name": "",
          "type": "uint256"
        }
      ],
      "payable": false,
      "stateMutability": "view",
      "type": "function",
      "signature": "0xbff1f9e1"
    },
    {
      "inputs": [],
      "payable": false,
      "stateMutability": "nonpayable",
      "type": "constructor",
      "signature": "constructor"
    },
    {
      "constant": false,
      "inputs": [],
      "name": "join",
      "outputs": [],
      "payable": true,
      "stateMutability": "payable",
      "type": "function",
      "signature": "0xb688a363"
    }
  ],
  "bytecode": "0x60806040526000600255600060035534801561001a57600080fd5b50336000806101000a81548173ffffffffffffffffffffffffffffffffffffffff021916908373ffffffffffffffffffffffffffffffffffffffff16021790555061069f8061006a6000396000f3fe60806040526004361061006d576000357c0100000000000000000000000000000000000000000000000000000000900463ffffffff168063365b98b2146100725780634941b9e1146100f45780638da5cb5b1461011f578063b688a36314610176578063bff1f9e114610180575b600080fd5b34801561007e57600080fd5b506100ab6004803603602081101561009557600080fd5b81019080803590602001909291905050506101ab565b604051808373ffffffffffffffffffffffffffffffffffffffff1673ffffffffffffffffffffffffffffffffffffffff1681526020018281526020019250505060405180910390f35b34801561010057600080fd5b506101096101fe565b6040518082815260200191505060405180910390f35b34801561012b57600080fd5b50610134610204565b604051808273ffffffffffffffffffffffffffffffffffffffff1673ffffffffffffffffffffffffffffffffffffffff16815260200191505060405180910390f35b61017e610229565b005b34801561018c57600080fd5b5061019561048c565b6040518082815260200191505060405180910390f35b6001818154811015156101ba57fe5b90600052602060002090600202016000915090508060000160009054906101000a900473ffffffffffffffffffffffffffffffffffffffff16908060010154905082565b60025481565b6000809054906101000a900473ffffffffffffffffffffffffffffffffffffffff1681565b600160408051908101604052803373ffffffffffffffffffffffffffffffffffffffff168152602001348152509080600181540180825580915050906001820390600052602060002090600202016000909192909190915060008201518160000160006101000a81548173ffffffffffffffffffffffffffffffffffffffff021916908373ffffffffffffffffffffffffffffffffffffffff1602179055506020820151816001015550505060016003600082825401925050819055506000809054906101000a900473ffffffffffffffffffffffffffffffffffffffff1673ffffffffffffffffffffffffffffffffffffffff166108fc610335600a3461049290919063ffffffff16565b9081150290604051600060405180830381858888f19350505050158015610360573d6000803e3d6000fd5b505b6103986002600160025481548110151561037857fe5b9060005260206000209060020201600101546104dc90919063ffffffff16565b3073ffffffffffffffffffffffffffffffffffffffff1631111561048a5760016002548154811015156103c757fe5b906000526020600020906002020160000160009054906101000a900473ffffffffffffffffffffffffffffffffffffffff1673ffffffffffffffffffffffffffffffffffffffff166108fc6104486002600160025481548110151561042857fe5b9060005260206000209060020201600101546104dc90919063ffffffff16565b9081150290604051600060405180830381858888f19350505050158015610473573d6000803e3d6000fd5b506001600260008282540192505081905550610362565b565b60035481565b60006104d483836040805190810160405280601a81526020017f536166654d6174683a206469766973696f6e206279207a65726f0000000000008152506105a9565b905092915050565b6000808314156104ef57600090506105a3565b6000828402905082848281151561050257fe5b0414151561059e576040517f08c379a00000000000000000000000000000000000000000000000000000000081526004018080602001828103825260218152602001807f536166654d6174683a206d756c7469706c69636174696f6e206f766572666c6f81526020017f770000000000000000000000000000000000000000000000000000000000000081525060400191505060405180910390fd5b809150505b92915050565b600080831182901515610657576040517f08c379a00000000000000000000000000000000000000000000000000000000081526004018080602001828103825283818151815260200191508051906020019080838360005b8381101561061c578082015181840152602081019050610601565b50505050905090810190601f1680156106495780820380516001836020036101000a031916815260200191505b509250505060405180910390fd5b506000838581151561066557fe5b04905080915050939250505056fea165627a7a72305820fbf9b0b1a7be358d169ecaad18ccbaa261fd6f7a9ebe44532e85a3e6d8f92e3f0029",
  "source": "pragma solidity ^0.5.0;\n\nimport \"@openzeppelin/contracts/math/SafeMath.sol\";\n\n// Chain shaped ponzi\ncontract Doubler {\n\n\tusing SafeMath for uint;\n\n\taddress payable public owner;\n\n\tstruct User {\n\t\taddress payable addr;\n\t\tuint amount;\n\t}\n\n\tUser[] public users;\n\tuint public currentlyPaying = 0;\n\tuint public totalUsers = 0;\n\n\tconstructor() public {\n\t\towner = msg.sender;\n\t}\n\n\tfunction join() external payable{\n\t\tusers.push(User(msg.sender, msg.value));\n\t\ttotalUsers += 1;\n\n\t\towner.transfer(msg.value.div(10));\n\t\twhile (address(this).balance > users[currentlyPaying].amount.mul(2)) {\n\t\t\tusers[currentlyPaying].addr.transfer(users[currentlyPaying].amount.mul(2));\n\t\t\tcurrentlyPaying += 1;\n\t\t}\n\t}\n}\n",
  "sourcePath": "/Users/alexroan/Documents/Projects/Blockchain/DApps/doubler/contracts/Doubler.sol",
  "compiler": {
    "name": "solc",
    "version": "0.5.0+commit.1d4f565a.Emscripten.clang"
  },
  "schemaVersion": "3.0.2",
  "updatedAt": "2020-02-21T09:22:36.287Z",
  "devdoc": {
    "methods": {}
  },
  "userdoc": {
    "methods": {}
  }
}