{
  "contractName": "Doubler",
  "abi": [
    {
      "constant": true,
      "inputs": [],
      "name": "active",
      "outputs": [
        {
          "name": "",
          "type": "bool"
        }
      ],
      "payable": false,
      "stateMutability": "view",
      "type": "function",
      "signature": "0x02fb0c5e"
    },
    {
      "constant": true,
      "inputs": [
        {
          "name": "",
          "type": "uint256"
        }
      ],
      "name": "users",
      "outputs": [
        {
          "name": "addr",
          "type": "address"
        },
        {
          "name": "amount",
          "type": "uint256"
        }
      ],
      "payable": false,
      "stateMutability": "view",
      "type": "function",
      "signature": "0x365b98b2"
    },
    {
      "constant": true,
      "inputs": [],
      "name": "totalPayout",
      "outputs": [
        {
          "name": "",
          "type": "uint256"
        }
      ],
      "payable": false,
      "stateMutability": "view",
      "type": "function",
      "signature": "0x454f7b8f"
    },
    {
      "constant": true,
      "inputs": [],
      "name": "currentlyPaying",
      "outputs": [
        {
          "name": "",
          "type": "uint256"
        }
      ],
      "payable": false,
      "stateMutability": "view",
      "type": "function",
      "signature": "0x4941b9e1"
    },
    {
      "constant": true,
      "inputs": [],
      "name": "totalWei",
      "outputs": [
        {
          "name": "",
          "type": "uint256"
        }
      ],
      "payable": false,
      "stateMutability": "view",
      "type": "function",
      "signature": "0x6d98e9fc"
    },
    {
      "constant": true,
      "inputs": [],
      "name": "owner",
      "outputs": [
        {
          "name": "",
          "type": "address"
        }
      ],
      "payable": false,
      "stateMutability": "view",
      "type": "function",
      "signature": "0x8da5cb5b"
    },
    {
      "constant": true,
      "inputs": [],
      "name": "totalUsers",
      "outputs": [
        {
          "name": "",
          "type": "uint256"
        }
      ],
      "payable": false,
      "stateMutability": "view",
      "type": "function",
      "signature": "0xbff1f9e1"
    },
    {
      "inputs": [],
      "payable": false,
      "stateMutability": "nonpayable",
      "type": "constructor",
      "signature": "constructor"
    },
    {
      "constant": false,
      "inputs": [],
      "name": "close",
      "outputs": [],
      "payable": false,
      "stateMutability": "nonpayable",
      "type": "function",
      "signature": "0x43d726d6"
    },
    {
      "constant": false,
      "inputs": [],
      "name": "join",
      "outputs": [],
      "payable": true,
      "stateMutability": "payable",
      "type": "function",
      "signature": "0xb688a363"
    }
  ],
  "bytecode": "0x6080604052600060025560006003556000600455600060055534801561002457600080fd5b50336000806101000a81548173ffffffffffffffffffffffffffffffffffffffff021916908373ffffffffffffffffffffffffffffffffffffffff1602179055506001600660006101000a81548160ff021916908315150217905550610a728061008f6000396000f3fe608060405260043610610099576000357c0100000000000000000000000000000000000000000000000000000000900463ffffffff16806302fb0c5e1461009e578063365b98b2146100cd57806343d726d61461014f578063454f7b8f146101665780634941b9e1146101915780636d98e9fc146101bc5780638da5cb5b146101e7578063b688a3631461023e578063bff1f9e114610248575b600080fd5b3480156100aa57600080fd5b506100b3610273565b604051808215151515815260200191505060405180910390f35b3480156100d957600080fd5b50610106600480360360208110156100f057600080fd5b8101908080359060200190929190505050610286565b604051808373ffffffffffffffffffffffffffffffffffffffff1673ffffffffffffffffffffffffffffffffffffffff1681526020018281526020019250505060405180910390f35b34801561015b57600080fd5b506101646102d9565b005b34801561017257600080fd5b5061017b61059f565b6040518082815260200191505060405180910390f35b34801561019d57600080fd5b506101a66105a5565b6040518082815260200191505060405180910390f35b3480156101c857600080fd5b506101d16105ab565b6040518082815260200191505060405180910390f35b3480156101f357600080fd5b506101fc6105b1565b604051808273ffffffffffffffffffffffffffffffffffffffff1673ffffffffffffffffffffffffffffffffffffffff16815260200191505060405180910390f35b6102466105d6565b005b34801561025457600080fd5b5061025d61085f565b6040518082815260200191505060405180910390f35b600660009054906101000a900460ff1681565b60018181548110151561029557fe5b90600052602060002090600202016000915090508060000160009054906101000a900473ffffffffffffffffffffffffffffffffffffffff16908060010154905082565b6000809054906101000a900473ffffffffffffffffffffffffffffffffffffffff1673ffffffffffffffffffffffffffffffffffffffff163373ffffffffffffffffffffffffffffffffffffffff161415156103c3576040517f08c379a00000000000000000000000000000000000000000000000000000000081526004018080602001828103825260218152602001807f43616e6e6f742063616c6c2066756e6374696f6e20756e6c657373206f776e6581526020017f720000000000000000000000000000000000000000000000000000000000000081525060400191505060405180910390fd5b60011515600660009054906101000a900460ff16151514151561044e576040517f08c379a00000000000000000000000000000000000000000000000000000000081526004018080602001828103825260178152602001807f436f6e7472616374206d7573742062652061637469766500000000000000000081525060200191505060405180910390fd5b60003073ffffffffffffffffffffffffffffffffffffffff1631111515610503576040517f08c379a000000000000000000000000000000000000000000000000000000000815260040180806020018281038252602b8152602001807f5468697320636f6e7472616374206d757374206861766520612062616c616e6581526020017f2061626f7665207a65726f00000000000000000000000000000000000000000081525060400191505060405180910390fd5b6000809054906101000a900473ffffffffffffffffffffffffffffffffffffffff1673ffffffffffffffffffffffffffffffffffffffff166108fc3073ffffffffffffffffffffffffffffffffffffffff16319081150290604051600060405180830381858888f19350505050158015610581573d6000803e3d6000fd5b506000600660006101000a81548160ff021916908315150217905550565b60055481565b60025481565b60045481565b6000809054906101000a900473ffffffffffffffffffffffffffffffffffffffff1681565b600160408051908101604052803373ffffffffffffffffffffffffffffffffffffffff168152602001348152509080600181540180825580915050906001820390600052602060002090600202016000909192909190915060008201518160000160006101000a81548173ffffffffffffffffffffffffffffffffffffffff021916908373ffffffffffffffffffffffffffffffffffffffff160217905550602082015181600101555050506001600360008282540192505081905550346004600082825401925050819055506000809054906101000a900473ffffffffffffffffffffffffffffffffffffffff1673ffffffffffffffffffffffffffffffffffffffff166108fc6106f2600a3461086590919063ffffffff16565b9081150290604051600060405180830381858888f1935050505015801561071d573d6000803e3d6000fd5b505b6107556002600160025481548110151561073557fe5b9060005260206000209060020201600101546108af90919063ffffffff16565b3073ffffffffffffffffffffffffffffffffffffffff1631111561085d5760006107ab6002600160025481548110151561078b57fe5b9060005260206000209060020201600101546108af90919063ffffffff16565b905060016002548154811015156107be57fe5b906000526020600020906002020160000160009054906101000a900473ffffffffffffffffffffffffffffffffffffffff1673ffffffffffffffffffffffffffffffffffffffff166108fc829081150290604051600060405180830381858888f19350505050158015610835573d6000803e3d6000fd5b508060056000828254019250508190555060016002600082825401925050819055505061071f565b565b60035481565b60006108a783836040805190810160405280601a81526020017f536166654d6174683a206469766973696f6e206279207a65726f00000000000081525061097c565b905092915050565b6000808314156108c25760009050610976565b600082840290508284828115156108d557fe5b04141515610971576040517f08c379a00000000000000000000000000000000000000000000000000000000081526004018080602001828103825260218152602001807f536166654d6174683a206d756c7469706c69636174696f6e206f766572666c6f81526020017f770000000000000000000000000000000000000000000000000000000000000081525060400191505060405180910390fd5b809150505b92915050565b600080831182901515610a2a576040517f08c379a00000000000000000000000000000000000000000000000000000000081526004018080602001828103825283818151815260200191508051906020019080838360005b838110156109ef5780820151818401526020810190506109d4565b50505050905090810190601f168015610a1c5780820380516001836020036101000a031916815260200191505b509250505060405180910390fd5b5060008385811515610a3857fe5b04905080915050939250505056fea165627a7a723058203b6d05dfaa43594849db25b6bf2e16022f8e0fa78610f5df98116a89ffd795d40029",
  "source": "pragma solidity ^0.5.0;\n\nimport \"@openzeppelin/contracts/math/SafeMath.sol\";\n\n// Chain shaped ponzi\ncontract Doubler {\n\n\tusing SafeMath for uint;\n\n\taddress payable public owner;\n\n\tstruct User {\n\t\taddress payable addr;\n\t\tuint amount;\n\t}\n\n\tUser[] public users;\n\tuint public currentlyPaying = 0;\n\tuint public totalUsers = 0;\n\tuint public totalWei = 0;\n\tuint public totalPayout = 0;\n\tbool public active;\n\n\tconstructor() public {\n\t\towner = msg.sender;\n\t\tactive = true;\n\t}\n\n\tfunction close() public{\n\t\trequire(msg.sender == owner, \"Cannot call function unless owner\");\n\t\trequire(active == true, \"Contract must be active\");\n\t\trequire(address(this).balance > 0, \"This contract must have a balane above zero\");\n\t\towner.transfer(address(this).balance);\n\t\tactive = false;\n\t}\n\n\tfunction join() external payable{\n\t\tusers.push(User(msg.sender, msg.value));\n\t\ttotalUsers += 1;\n\t\ttotalWei += msg.value;\n\n\t\towner.transfer(msg.value.div(10));\n\t\twhile (address(this).balance > users[currentlyPaying].amount.mul(2)) {\n\t\t\tuint sendAmount = users[currentlyPaying].amount.mul(2);\n\t\t\tusers[currentlyPaying].addr.transfer(sendAmount);\n\t\t\ttotalPayout += sendAmount;\n\t\t\tcurrentlyPaying += 1;\n\t\t}\n\t}\n}\n",
  "sourcePath": "/Users/alexroan/Documents/Projects/Blockchain/DApps/doubler/contracts/Doubler.sol",
  "compiler": {
    "name": "solc",
    "version": "0.5.0+commit.1d4f565a.Emscripten.clang"
  },
  "schemaVersion": "3.0.2",
  "updatedAt": "2020-03-09T15:04:42.914Z",
  "devdoc": {
    "methods": {}
  },
  "userdoc": {
    "methods": {}
  }
}