{
  "contractName": "SimpleStorage",
  "abi": [
    {
      "inputs": [],
      "stateMutability": "nonpayable",
      "type": "constructor"
    },
    {
      "inputs": [],
      "name": "currentPaying",
      "outputs": [
        {
          "internalType": "uint256",
          "name": "",
          "type": "uint256"
        }
      ],
      "stateMutability": "view",
      "type": "function"
    },
    {
      "inputs": [],
      "name": "owner",
      "outputs": [
        {
          "internalType": "address payable",
          "name": "",
          "type": "address"
        }
      ],
      "stateMutability": "view",
      "type": "function"
    },
    {
      "inputs": [],
      "name": "totalUsers",
      "outputs": [
        {
          "internalType": "uint256",
          "name": "",
          "type": "uint256"
        }
      ],
      "stateMutability": "view",
      "type": "function"
    },
    {
      "inputs": [
        {
          "internalType": "uint256",
          "name": "",
          "type": "uint256"
        }
      ],
      "name": "users",
      "outputs": [
        {
          "internalType": "address payable",
          "name": "addr",
          "type": "address"
        },
        {
          "internalType": "uint256",
          "name": "amount",
          "type": "uint256"
        }
      ],
      "stateMutability": "view",
      "type": "function"
    },
    {
      "stateMutability": "payable",
      "type": "receive"
    }
  ],
  "bytecode": "0x60806040526000600255600060035534801561001a57600080fd5b50336000806101000a81548173ffffffffffffffffffffffffffffffffffffffff021916908373ffffffffffffffffffffffffffffffffffffffff1602179055506102e58061006a6000396000f3fe6080604052600436106100435760003560e01c8063365b98b2146100fe5780638da5cb5b14610180578063bff1f9e1146101d7578063fbc6e94914610202576100f9565b366100f95760405180604001604052803373ffffffffffffffffffffffffffffffffffffffff16815260200134815250600180805490508154811061008457fe5b906000526020600020906002020160008201518160000160006101000a81548173ffffffffffffffffffffffffffffffffffffffff021916908373ffffffffffffffffffffffffffffffffffffffff160217905550602082015181600101559050506001600360008282540192505081905550005b600080fd5b34801561010a57600080fd5b506101376004803603602081101561012157600080fd5b810190808035906020019092919050505061022d565b604051808373ffffffffffffffffffffffffffffffffffffffff1673ffffffffffffffffffffffffffffffffffffffff1681526020018281526020019250505060405180910390f35b34801561018c57600080fd5b5061019561027e565b604051808273ffffffffffffffffffffffffffffffffffffffff1673ffffffffffffffffffffffffffffffffffffffff16815260200191505060405180910390f35b3480156101e357600080fd5b506101ec6102a3565b6040518082815260200191505060405180910390f35b34801561020e57600080fd5b506102176102a9565b6040518082815260200191505060405180910390f35b6001818154811061023a57fe5b90600052602060002090600202016000915090508060000160009054906101000a900473ffffffffffffffffffffffffffffffffffffffff16908060010154905082565b6000809054906101000a900473ffffffffffffffffffffffffffffffffffffffff1681565b60035481565b6002548156fea26469706673582212207d825e2baee030b5dc16244fd9616d59fc1ccf66eeafd70471f1a4116f36ea5764736f6c63430006000033",
  "source": "pragma solidity >=0.6.0;\n\ncontract SimpleStorage {\n\n\taddress payable public owner;\n\n\tstruct User {\n\t\taddress payable addr;\n\t\tuint amount;\n\t}\n\n\tUser[] public users;\n\tuint public currentPaying = 0;\n\tuint public totalUsers = 0;\n\n\tconstructor() public {\n\t\towner = msg.sender;\n\t}\n\n\treceive() external payable{\n\t\tusers[users.length] = User({addr: msg.sender, amount: msg.value});\n\t\ttotalUsers += 1;\n\n\t}\n}\n",
  "sourcePath": "/Users/alexroan/Documents/Projects/Blockchain/DApps/doubler/contracts/Doubler.sol",
  "compiler": {
    "name": "solc",
    "version": "0.6.0+commit.26b70077.Emscripten.clang"
  },
  "schemaVersion": "3.0.23",
  "updatedAt": "2020-02-13T19:15:53.812Z",
  "devdoc": {
    "methods": {}
  },
  "userdoc": {
    "methods": {}
  }
}