{
  "contractName": "Waterfall",
  "abi": [
    {
      "constant": true,
      "inputs": [],
      "name": "payoutPercentage",
      "outputs": [
        {
          "name": "",
          "type": "uint256"
        }
      ],
      "payable": false,
      "stateMutability": "view",
      "type": "function",
      "signature": "0x290ee5c9"
    },
    {
      "constant": true,
      "inputs": [
        {
          "name": "",
          "type": "uint256"
        }
      ],
      "name": "users",
      "outputs": [
        {
          "name": "addr",
          "type": "address"
        },
        {
          "name": "amount",
          "type": "uint256"
        }
      ],
      "payable": false,
      "stateMutability": "view",
      "type": "function",
      "signature": "0x365b98b2"
    },
    {
      "constant": true,
      "inputs": [],
      "name": "owner",
      "outputs": [
        {
          "name": "",
          "type": "address"
        }
      ],
      "payable": false,
      "stateMutability": "view",
      "type": "function",
      "signature": "0x8da5cb5b"
    },
    {
      "constant": true,
      "inputs": [],
      "name": "feePercentage",
      "outputs": [
        {
          "name": "",
          "type": "uint256"
        }
      ],
      "payable": false,
      "stateMutability": "view",
      "type": "function",
      "signature": "0xa001ecdd"
    },
    {
      "constant": true,
      "inputs": [],
      "name": "totalUsers",
      "outputs": [
        {
          "name": "",
          "type": "uint256"
        }
      ],
      "payable": false,
      "stateMutability": "view",
      "type": "function",
      "signature": "0xbff1f9e1"
    },
    {
      "inputs": [],
      "payable": false,
      "stateMutability": "nonpayable",
      "type": "constructor",
      "signature": "constructor"
    },
    {
      "constant": false,
      "inputs": [],
      "name": "join",
      "outputs": [],
      "payable": true,
      "stateMutability": "payable",
      "type": "function",
      "signature": "0xb688a363"
    }
  ],
  "bytecode": "0x60806040526000600255600a600355600a60045534801561001f57600080fd5b50336000806101000a81548173ffffffffffffffffffffffffffffffffffffffff021916908373ffffffffffffffffffffffffffffffffffffffff1602179055506107878061006f6000396000f3fe608060405260043610610078576000357c0100000000000000000000000000000000000000000000000000000000900463ffffffff168063290ee5c91461007d578063365b98b2146100a85780638da5cb5b1461012a578063a001ecdd14610181578063b688a363146101ac578063bff1f9e1146101b6575b600080fd5b34801561008957600080fd5b506100926101e1565b6040518082815260200191505060405180910390f35b3480156100b457600080fd5b506100e1600480360360208110156100cb57600080fd5b81019080803590602001909291905050506101e7565b604051808373ffffffffffffffffffffffffffffffffffffffff1673ffffffffffffffffffffffffffffffffffffffff1681526020018281526020019250505060405180910390f35b34801561013657600080fd5b5061013f61023a565b604051808273ffffffffffffffffffffffffffffffffffffffff1673ffffffffffffffffffffffffffffffffffffffff16815260200191505060405180910390f35b34801561018d57600080fd5b5061019661025f565b6040518082815260200191505060405180910390f35b6101b4610265565b005b3480156101c257600080fd5b506101cb610574565b6040518082815260200191505060405180910390f35b60045481565b6001818154811015156101f657fe5b90600052602060002090600202016000915090508060000160009054906101000a900473ffffffffffffffffffffffffffffffffffffffff16908060010154905082565b6000809054906101000a900473ffffffffffffffffffffffffffffffffffffffff1681565b60035481565b670de0b6b3a7640000341015151561030b576040517f08c379a00000000000000000000000000000000000000000000000000000000081526004018080602001828103825260238152602001807f496e766573746d656e74206d757374206265206174206c65617374203120657481526020017f686572000000000000000000000000000000000000000000000000000000000081525060400191505060405180910390fd5b600160408051908101604052803373ffffffffffffffffffffffffffffffffffffffff168152602001348152509080600181540180825580915050906001820390600052602060002090600202016000909192909190915060008201518160000160006101000a81548173ffffffffffffffffffffffffffffffffffffffff021916908373ffffffffffffffffffffffffffffffffffffffff16021790555060208201518160010155505050600160026000828254019250508190555060006103f260646103e46003543461057a90919063ffffffff16565b61064790919063ffffffff16565b90506000809054906101000a900473ffffffffffffffffffffffffffffffffffffffff1673ffffffffffffffffffffffffffffffffffffffff166108fc829081150290604051600060405180830381858888f1935050505015801561045b573d6000803e3d6000fd5b5060008090505b6002548110156105705760006104b660646104a860045460018681548110151561048857fe5b90600052602060002090600202016001015461057a90919063ffffffff16565b61064790919063ffffffff16565b90503073ffffffffffffffffffffffffffffffffffffffff16318111156104dd5750610570565b6001828154811015156104ec57fe5b906000526020600020906002020160000160009054906101000a900473ffffffffffffffffffffffffffffffffffffffff1673ffffffffffffffffffffffffffffffffffffffff166108fc829081150290604051600060405180830381858888f19350505050158015610563573d6000803e3d6000fd5b5060018201915050610462565b5050565b60025481565b60008083141561058d5760009050610641565b600082840290508284828115156105a057fe5b0414151561063c576040517f08c379a00000000000000000000000000000000000000000000000000000000081526004018080602001828103825260218152602001807f536166654d6174683a206d756c7469706c69636174696f6e206f766572666c6f81526020017f770000000000000000000000000000000000000000000000000000000000000081525060400191505060405180910390fd5b809150505b92915050565b600061068983836040805190810160405280601a81526020017f536166654d6174683a206469766973696f6e206279207a65726f000000000000815250610691565b905092915050565b60008083118290151561073f576040517f08c379a00000000000000000000000000000000000000000000000000000000081526004018080602001828103825283818151815260200191508051906020019080838360005b838110156107045780820151818401526020810190506106e9565b50505050905090810190601f1680156107315780820380516001836020036101000a031916815260200191505b509250505060405180910390fd5b506000838581151561074d57fe5b04905080915050939250505056fea165627a7a7230582033b77c54476214f87d02f0b843653146e97f4d71c49d2405ebca96c40d1949ec0029",
  "source": "pragma solidity ^0.5.0;\n\nimport \"@openzeppelin/contracts/math/SafeMath.sol\";\n\ncontract Waterfall {\n    using SafeMath for uint;\n\n\tstruct User {\n\t\taddress payable addr;\n\t\tuint amount;\n\t}\n\n    address payable public owner;\n    User[] public users;\n    uint public totalUsers = 0;\n    uint public feePercentage = 10;\n    uint public payoutPercentage = 10;\n\n    constructor() public {\n        owner = msg.sender;\n    }\n\n\n    function join() external payable {\n        require(msg.value >= 1 ether, \"Investment must be at least 1 ether\");\n        users.push(User(msg.sender, msg.value));\n        totalUsers += 1;\n\n        uint fee = msg.value.mul(feePercentage).div(100);\n        owner.transfer(fee);\n\n        uint position = 0;\n        while(position < totalUsers) {\n            uint payout = users[position].amount.mul(payoutPercentage).div(100);\n            if(payout > address(this).balance){\n                break;\n            }\n            users[position].addr.transfer(payout);\n            position += 1;\n        }\n    }\n}",
  "sourcePath": "/Users/alexroan/Documents/Projects/Blockchain/DApps/doubler/contracts/Waterfall.sol",
  "compiler": {
    "name": "solc",
    "version": "0.5.0+commit.1d4f565a.Emscripten.clang"
  },
  "schemaVersion": "3.0.2",
  "updatedAt": "2020-02-29T22:43:33.361Z",
  "devdoc": {
    "methods": {}
  },
  "userdoc": {
    "methods": {}
  }
}